:020000040800F2
:10000000A06B00209D010008131B000807190008C1
:10001000111B0008150300087D1E000800000000E9
:10002000000000000000000000000000171B000896
:100030001703000800000000151B0008191B00082A
:10004000B7010008B7010008B7010008B7010008B0
:10005000B7010008B7010008B7010008B7010008A0
:10006000B7010008B7010008B7010008B701000890
:10007000B7010008B7010008B7010008B701000880
:10008000B7010008B7010008B7010008B701000870
:10009000B7010008B7010008B7010008B701000860
:1000A000B7010008B7010008B7010008B701000850
:1000B000B7010008B7010008B7010008B701000840
:1000C000B7010008B7010008B7010008B701000830
:1000D000B7010008B7010008B7010008711E000849
:1000E000B7010008B7010008B7010008B701000810
:1000F000B7010008B7010008B7010008B701000800
:10010000B7010008B7010008B7010008B7010008EF
:10011000B7010008B7010008B7010008B7010008DF
:10012000B7010008B7010008B7010008B7010008CF
:10013000B701000869030008B7010008B70100080B
:10014000B7010008B7010008B7010008B7010008AF
:10015000B7010008B7010008B7010008B70100089F
:10016000B7010008B7010008B7010008B70100088F
:10017000B7010008B7010008B7010008000000003F
:10018000B7010008B7010008DFF80CD000F0B0F8A4
:100190000048004709440008A06B0020064880473B
:1001A00006480047FEE7FEE7FEE7FEE7FEE7FEE75C
:1001B000FEE7FEE7FEE7FEE7A11B00088901000855
:1001C0002DE9F05F0546002092469B46884606468C
:1001D000814640241BE0284641464746224600F01F
:1001E00076F853465A46C01A914110D31146184624
:1001F000224600F05DF82D1A67EB01084F462246B3
:100200000120002100F054F817EB00094E41201E98
:10021000A4F10104DFDC484631462A464346BDE8E6
:10022000F09F40EA01039B0703D009E008C9121FB1
:1002300008C0042AFAD203E011F8013B00F8013BA0
:10024000521EF9D27047D2B201E000F8012B491ECC
:10025000FBD270470022F6E710B513460A46044663
:100260001946FFF7F0FF204610BD30B504460020C8
:10027000034600E05B1C934203D2E05CCD5C401B74
:10028000F8D030BD30B50B460146002020220124B5
:1002900009E021FA02F59D4205D303FA02F5491B54
:1002A00004FA02F52844151EA2F10102F1DC30BD6A
:1002B000202A04DB203A00FA02F100207047914026
:1002C000C2F1200320FA03F3194390407047202A1B
:1002D00004DB203A21FA02F00021704721FA02F3F0
:1002E000D040C2F1200291400843194670470000F7
:1002F000064C074D06E0E06840F0010394E8070073
:1003000098471034AC42F6D3FFF742FF7C8E0008CA
:100310009C8E0008FEE77047064908B509684FF44F
:10032000FA52B1FBF2F14143009100BF491E009126
:10033000FBD208BD2400002038B50446006800F553
:100340008050816941F480118161206800F58050FE
:10035000806900900120FFF7DFFF2068009900F519
:100360008050816138BD0000014800F007BA0000EC
:10037000983100202DE9F041044621B14FF400608E
:10038000E060C000A060E0690025002861D0284638
:100390002368402619683A4A1140D4E902273A43B3
:1003A000024342F400700843186020680768012087
:1003B00000F086F82068076020684660206846687C
:1003C000012000F07DF82068466020688560206884
:1003D000C560216888694FF64172104040F0800086
:1003E000886120688669012000F06AF820688661CB
:1003F0002068C5612068C569012000F061F82068A7
:10040000C561226802F5805290691E4908401E4964
:1004100001439161206800F580508569012000F05A
:100420004FF8206800F5805085612068174900F575
:1004300080500160206800F580500568012000F0C0
:100440003FF8206800F580500560A069012803D0BE
:1004500009E04FF480609BE7206800F58050C16997
:100460000B4A1143C16160690A4982880A640278B3
:10047000D0F8010042EA00204864BDE8F0810000A5
:100480000F8120FF233FDEF8040020028020C102FC
:100490004000010000800240704790F835100229AA
:1004A00003D08021416501207047052180F8351077
:1004B0000068016821F00101016000207047000020
:1004C00070B5044600F072FD0546601C02D0044879
:1004D0000078044400F06AFD401BA042FAD370BDCE
:1004E000180000202DE9F041054690F845000C4623
:1004F000012875D0012685F84560022085F8440062
:10050000002C70D02A68116841480140D4E90003EA
:100510001843D4E902373B431843AB6818432369B7
:10052000184363691843EB681843A3691843E369E8
:100530001843236A1843636A1843A36A184308439D
:100540001060286807680120FFF7BAFF2868076075
:10055000D4E90B010843D4E90D1211430843E16BC0
:100560000843216C0843616C0843A16C0843296867
:100570004860286847680120FFF7A2FF28684760A5
:100580002968E06C88602968206DC8602A689169D4
:100590004FF641700140D4E916031843B4F8547083
:1005A000236E43EA07431843636E1843A36E184350
:1005B00008439061286887690120FFF781FF286858
:1005C0008761D4E91B0108432968C8612868C469A8
:1005D0000120FFF775FF2868C46114E000E002E025
:1005E0000220BDE8F0812968086820F49042D5E92E
:1005F0000203184310430860286804680120FFF7CD
:100600005FFF2868046005F8446F00206870E8E721
:100610000F8120FF2DE9F04390F845400025012C83
:100620000DD04FF0010C80F845C0022480F8444002
:1006300044F2F4574FF000495E1E816217E0022039
:10064000BDE8F08301EB4514C4F80090C5EBC51874
:1006500008EB480802EB8808C4E90178B54204D2E7
:1006600004F12008C4F80C8000E0E1606D1C9D429C
:10067000E8D3026802F58052D16080F844C00021BE
:1006800080F845100846DBE72DE9F043914690F8E5
:1006900045200024012A0AD0012680F84560022264
:1006A00080F844204FF4801C5D1EC1621BE00220D4
:1006B000BDE8F08301EB4412C2F800C0C4EBC417DC
:1006C00007EB470809EB88079760C7691FB91768E8
:1006D00047F440071760AC4203D202F12007D7600D
:1006E00000E0D160641C9C42E4D3026802F58052B1
:1006F000116180F84460002180F845100846D7E772
:10070000704710B590F84510012913D0012280F8E8
:100710004520022180F84410816A0C680023002CD7
:1007200027DB0C68E40518D5846B641C8463012CFA
:1007300002D002E0022010BD016341630C68C4F3E3
:100740000D44241FC463046BA4680464C96840F8A2
:10075000281F02774377002010BD0C68A40503D53D
:100760008263C0E90C1302E0846B641C8463C96873
:10077000816200F8442F4370012010BD70B504461B
:10078000006800F5805041694FF0000549064FF0C0
:10079000010608D5204600F0DBF92068402100F56D
:1007A0008050416109E04069C0070AD0204600F04E
:1007B000D8FA206800F58050466184F8446084F8D7
:1007C000455020684FF4803100F580504161206829
:1007D00000F58050406900040CD52046FFF790FFDB
:1007E00020684FF4004100F58050416184F8446076
:1007F00084F8455070BD00002DE9FC474FF000061D
:100800000400B146009603D094F8440018B107E004
:100810000120BDE8FC8784F84560204600F0E2F83E
:100820006648016841F480410160006800F480403E
:1008300001906348016821F4000101600168226AA7
:1008400011430160206800F58050016841F001010A
:10085000016000F0ABFB05464FF4FA7709E000BFFA
:1008600000F0A4FB401BB84203D9032004F8440F56
:1008700067E0206800F580500068C007F0D120686C
:10088000006920F01C0500F0CBFC4E494E4A0144A3
:10089000914202D245F0080516E04C494C4A014409
:1008A000914202D245F00C050EE04A494A4A014401
:1008B000914209D3494908444949884202D245F046
:1008C000040501E045F01005206805614FF4004281
:1008D0000021204600F046FA0125A8BBFF20FFF7C3
:1008E000EFFD606888B300F061FB804641F2883715
:1008F0006A460121204600F0E9F800F057FBA0EB22
:100900000800B84217D800984007F1D54FF480523C
:100910000021204600F026FAB0B900F047FB8046DF
:100920006A460121204600F0D1F800F03FFBA0EB21
:100930000800B8420AD901212046FFF71BFD04F840
:10094000445F0320667064E724E018E000988006A6
:10095000E6D56A461F21204600F0B8F8D0B90098C5
:10096000C10603D54FF40061E16000E0E660400796
:1009700001D5A66019E04FF48040A06015E0E06862
:10098000A168C00840EA510082B20021204600F070
:10099000E9F930B101212046FFF7ECFC84F844501E
:1009A00036E740F6FF70FFF78BFD49462046FFF71C
:1009B000E1FC84F8445000202BE70000443802405A
:1009C0000438014000D3CEFEC0E1E40040F1E9FD6F
:1009D00040787D0100796CFC005A6202001F0AFA1F
:1009E00080F0FA02F0B587B0044614216846FFF79C
:1009F00031FC3149206888425BD1304800240168CD
:100A000041F000710160016801F000710591016819
:100A100041F080610160016801F080610591016829
:100A200041F000610160016801F000610591016819
:100A300041F004010160016801F0040105910168C1
:100A400041F001010160016801F0010105910168B7
:100A500041F0400101600068022500F0400005906F
:100A60003220CDE9000502AA03260B2782E8D00038
:100A70006946134800F0B2F98620CDE9000502AAC4
:100A8000694682E8D0000F4800F0A8F94FF4D04042
:100A9000CDE9000502AA694682E8D0000A4800F0C4
:100AA0009DF9002205213D2000F0EEFA3D2000F0E6
:100AB000DDFA07B0F0BD000000800240303802408F
:100AC0000008024000000240001802402DE9F047F3
:100AD000044690F84400914682281DD0822084F874
:100AE0004400226810694FF6FF7500F01C03208A4D
:100AF00005EAC02018434FF4F86303EA811101436B
:100B000021F0020040F00105156100F04FFA0646A1
:100B100001274FF4803810E00220BDE8F08700BFC5
:100B200000F044FA801B404505D304F8447F0020C0
:100B300060700320F1E720680569E807F0D12068BC
:100B4000406981B2C9F8001084F844700020E4E7DD
:100B50007047F8B5044690F84500012839D00125C2
:100B600084F84550022084F844002068002601687B
:100B700041F0080101602068006800902846FFF7F6
:100B8000CBFB2168009808602068016841F00401EF
:100B900001602068006800900120FFF7BDFB21681C
:100BA000009808602046FFF7C7FB206800F58050DA
:100BB000816941F400518161206800F580508169AC
:100BC00041F00201816184F8445084F845600020BE
:100BD000F8BD0220F8BDF8B5044690F8450001289C
:100BE00039D0012584F84550022084F8440020685B
:100BF00000F58050816921F400518161206800F581
:100C00008050816921F0020181612068002601681D
:100C100021F0040101602068006800900120FFF7C6
:100C20007BFB2168009808602046FFF785FB206861
:100C3000016821F00801016020680068009001202F
:100C4000FFF76AFB21680098086084F8445084F834
:100C500045600020F8BD0220F8BDF0B590F84520B1
:100C60000023012A11D0012780F84570022280F864
:100C70004420002459B1C66A3268002A0ADA1221D7
:100C800000F8441F44700120F0BD0220F0BD00F8C0
:100C9000447FF7E740F2F455A9420BD9B1FBF5FCCC
:100CA000B1FBF5F205FB1C1CBCF1000F00D0521C7F
:100CB000012A43D1326842F040523260C26AC1F325
:100CC0000C015160C16A0A6842F000420A60C16AC0
:100CD000C968C16234E0D6F800C02CF0405CC6F8A8
:100CE00000C033B9C66AD6F800C04CF0805CC6F8C4
:100CF00000C0C66A7560561EB34214D1C66AD6F8E3
:100D000000C04CF0005CC6F800C0C2F10106C6EBA2
:100D1000C61606EB4606D0F82CC001EB8606C6F3D5
:100D20000C06CCF80460C66AD6F800C04CF0004C43
:100D3000C6F800C0C66A5B1CF668C6629342CAD396
:100D4000016801F580514A69520705D504224A61BC
:100D5000016801F580514C6000F8447F4470002028
:100D6000F0BD70472DE9F041044690F84400422858
:100D70001ED0422084F84400236818694FF6FF769D
:100D800000F01C05208A06EAC02028434FF4F865CD
:100D900005EA8111014390B241F0030558612068D2
:100DA000056100F003F9064601274FF4803810E092
:100DB0000220BDE8F08100BF00F0F8F8801B40453C
:100DC00005D304F8447F002060700320F1E7206819
:100DD0000569E807F0D184F84470EAE72DE9F84F97
:100DE00000224FF0010803254FF00F0E0B6808FAA0
:100DF00002F42340A3426ED14E68012E05D0022E8C
:100E000003D0112E01D0122E12D186684FEA420C67
:100E100005FA0CF7BE43CF6807FA0CF73743876033
:100E20004668A6430C79C4F30014944034434460EC
:100E3000C668570005FA07FC8C6826EA0C06BC4019
:100E40003443C4604C68022C01D0122C13D1D40856
:100E500000EB8404A346D4F8209054074FEAD46AE8
:100E60000EFA0AF629EA06090E6906FA0AF646EAB1
:100E70000906CBF8206006680C7926EA0C0604F017
:100E80000304BC40344304604C68E40065D5364C30
:100E9000266846F480462660246822F0030604F49F
:100EA00080440094314C3444A446D4F80848960752
:100EB000370F0EFA07F6B4432D4EB04201D100268B
:100EC00024E02C4EB04201D101261FE02A4EB04250
:100ED00002D102261AE040E0284EB04201D103269A
:100EE00014E0274EB04201D104260FE0254EB04257
:100EF00001D105260AE0244EB04201D1062605E0C4
:100F0000224EB04201D1072600E00826BE4026430B
:100F1000CCF808681E4E34684F689C43FF0300D528
:100F20001C4334601A4C241D26684F689E43BF033F
:100F300000D51E432660164E083634684F689C4321
:100F4000FF0200D51C433460114E0C3634684F68E4
:100F50009C43BF0200D51C433460521C102AFFF48E
:100F600045AFBDE8F88F0000443802400030014032
:100F7000000002400004024000080240000C024051
:100F8000001002400014024000180240001C024001
:100F9000003C0140426931EA020200D1090481614A
:100FA00070470AB1816170470904FBE70148806816
:100FB0007047000018000020024881680278114440
:100FC00081607047180000200B4810B5016841F49B
:100FD00000710160016841F480610160016841F4C1
:100FE00080710160032000F06FF8002000F006F827
:100FF00000F024F8002010BD003C024070B50D4DFB
:1010000004464FF47A712878B1FBF0F00A49096878
:10101000B1FBF0F000F008FB48B9102C07D2002219
:101020002146501E00F030F800206C6070BD012099
:1010300070BD000018000020240000200A4808B5F8
:10104000016841F480410160006800F48040009034
:101050000548001F016841F080510160006800F000
:101060008050009008BD000044380240002809DB91
:1010700000F01F02012191404009800000F1E020B2
:10108000C0F8001170470000F0B40E4B1B680C460E
:10109000C3F30223C3F10705042D00D90425191D4C
:1010A000072901D2002300E0DB1E012606FA05F124
:1010B000491E214099409E40761E16403143F0BCA7
:1010C00000F0EEBE0CED00E0064900F007020868F3
:1010D0004FF6FF03184040EA0220034A104308601D
:1010E000704700000CED00E00000FA052DE9F04724
:1010F0000E46050065D0DFF81481D8F80000F7B27D
:1011000000F00F00B04207D288F80070D8F8000055
:1011100000F00F00B04254D128683D4C810712D531
:10112000400703D5206840F4E0502060287800078D
:1011300003D5206840F4604020602068A96820F052
:10114000F000084320602878C0072DD03049686837
:101150000839012812D0022813D0032811D00968B9
:10116000890700292DDA216821F00301014321605C
:10117000FFF71CFF814641F2883A0EE009688903B7
:10118000EFE709688901ECE7FFF710FFA0EB090121
:10119000514502D90320BDE8F0872068696800F056
:1011A0000C00B0EB810FEFD1D8F80010404601F0F1
:1011B0000F01B14207D90770006800F00F00B0427C
:1011C00001D00120E7E72878400705D52068E968C5
:1011D00020F4E050084320602878000706D52068F6
:1011E000296920F4604040EAC100206000F03EF828
:1011F0002168084AC1F30311515CC84006490860E0
:1012000006480068FFF7FAFE0020C4E7003C0240F1
:1012100008380240548C0008240000201C000020E4
:101220000148006870470000240000200448054978
:1012300000680968044AC1F38221515CC8407047C4
:101240002400002008380240648C00080448054946
:1012500000680968044AC1F34231515CC8407047D4
:101260002400002008380240648C0008154810B59E
:10127000006810F00C02144813D04110042A0FD05B
:10128000082A0ED10F4C241F2268236802F03F0267
:101290005B0207D52068C0F38810A0FB010106E0BF
:1012A000084610BD2168C1F38811A1FB000100238D
:1012B000FEF786FF2168C1F30141491C4900B0FBDC
:1012C000F1F010BD083802400024F4002DE9F84F79
:1012D000040076D02078DFF838A3CE4DC00749D07F
:1012E000DAF800105046C1F38101012908D00068E6
:1012F000C0F3810002280AD1281D0068400206D5EB
:101300002868800336D560680028E2D032E0606843
:10131000B0F5803F10D0B0F5A02F286810D020F491
:1013200080302860286820F4802028606068A0B1A0
:10133000FFF73CFE06460CE0286840F48030F4E7F6
:1013400040F480202860F7E7FFF730FE801B642818
:1013500073D828688003F7D50CE0FFF727FE064610
:1013600005E000BFFFF722FE801B6428F0D8286844
:101370008003F7D42078DFF8A08280074FF00009BF
:101380003ED5DAF80010504611F00C0F09D0006875
:10139000C0F3810002280BD19D48001F0068400265
:1013A00006D42868800715D5E068012809D111E026
:1013B000E068B8B10120C8F80000FFF7F7FD064665
:1013C00005E020E1FFF7F2FD801B0228C0D8286865
:1013D0008007F7D52868216920F0F80040EAC100AD
:1013E00028600DE0C8F80090FFF7E0FD064604E035
:1013F000FFF7DCFD801B02281FD828688007F7D480
:101400002078000722D5824E844861696C3671B11C
:1014100001210160FFF7CAFD074604E0FFF7C6FDA2
:10142000C01B022809D830688007F7D50EE0C0F845
:101430000090FFF7BBFD074605E082E0FFF7B6FD31
:10144000C01B02287DD830688007F7D42078400779
:1014500068D5DFF8BCB100270BF1380BDBF80000D2
:10146000C0000BD4DBF8001041F08051CBF8001025
:10147000DBF80000012700F080500090684E3068D3
:10148000C00510D4306840F480703060FFF78EFDE6
:10149000009005E0FFF78AFD0099401A022850D815
:1014A0003068C005F6D55A4EA068683601280FD0BE
:1014B0000528306810D020F001003060306820F03E
:1014C00004003060A068B8B1FFF770FD00900FE035
:1014D000306840F00100F4E740F004003060F7E7C6
:1014E000FFF764FD0099411A41F28830814266D8C5
:1014F00030688007F4D50EE0FFF758FD009007E054
:10150000FFF754FD0099411A41F28830814256D8C4
:1015100030688007F4D42FB1DBF8001021F080513F
:10152000CBF80010A069D0B3DAF800205146C2F31E
:101530008102022A4AD00228484607D0C8F8600033
:1015400000E03CE0FFF732FD04463BE04746C8F8C8
:101550006000FFF72BFD064605E000BFFFF726FD04
:10156000801B02282BD828688001F7D4D4E9070112
:101570000843A16A2B4A490802EB0141626A41EA29
:101580008211084394F82C1040EA01612048001FA2
:10159000016001203866FFF709FD044605E034E0EC
:1015A000FFF704FD001B022809D828688001F7D541
:1015B0002BE000BFFFF7FAFC001B022802D9032032
:1015C000BDE8F88F28688001F4D41EE00128F7D028
:1015D0000868E26900F48001914214D1226A00F0A7
:1015E0003F0191420FD147F6C071626A01409142BA
:1015F00009D1A26A00F44031914204D1E16A00F0BD
:101600007060884201D00120DAE70020D8E70000AE
:10161000083802400038024000004742800E47422E
:10162000007000400000FFFF10B5401EB0F1807F49
:1016300001D3012010BD4FF0E02460610F2160173D
:1016400000F02EFC0020A06107202061002010BDCA
:101650007047000070B5026804461068D16853698D
:1016600010F00F0F53D003F0010501F490762E43D4
:101670005FD0C20705D0CA0503D5E26B42F0010274
:10168000E263420705D5DA0703D0E26B42F00202BB
:10169000E263820705D5DA0703D0E26B42F0040269
:1016A000E263020707D501F020022A4303D0E26B70
:1016B00042F00802E263E26B002A34D0800604D5CF
:1016C000880602D5204600F08FFA20684069E16B59
:1016D000C0F3801001F008010143204624D000F03F
:1016E00075FA2068416949061AD5416921F040011F
:1016F0004161606BA0B11B490165606BFEF7CDFED7
:10170000002810D0606B016DBDE87040084783066B
:101710000FD58B060DD52046BDE8704000F064BAA9
:101720002046FFF795FF70BDFFF792FF0020E063B2
:1017300070BD030606D50B0604D52046BDE87040F3
:1017400000F032BB4006F3D54806F1D5D1682046FB
:1017500021F04001D160202184F8391000F0D2F846
:1017600070BD0000BD1B000870B5040004D094F8E3
:101770003900002510B106E0012070BD84F8385012
:10178000204600F023F8242084F839002068C1683E
:1017900021F40051C160204600F072FA206801690E
:1017A00021F4904101612068416921F02A014161E1
:1017B0002068C16841F40051C160E563202084F8CD
:1017C000390084F83A00002070BD000010B586B0E2
:1017D000044614216846FEF73DFD184920688842FA
:1017E00029D11748016841F480210160006800F4A4
:1017F0008020059012481038016841F0080101600E
:101800000068694600F0080005904FF440700090B1
:1018100002200190012002900320039007200490F1
:101820000848FFF7DBFA002201212720FFF72CFCF4
:101830002720FFF71BFC06B010BD00000048004049
:1018400040380240000C024070472DE9F84304463E
:1018500090F839001F4616460D46202850D1B5B1E4
:10186000AEB194F8380001284AD0012084F838003D
:101870004FF00008C4F83C80212084F83900FFF7BD
:1018800095FBA6848146E68484F8388026E0012012
:10189000BDE8F883E08C401EE084A0684B46B0F5BC
:1018A000805F4FF000024FF080012046009703D088
:1018B00000F0ABFAE8B90DE000F0A7FAC8B9288843
:1018C0002168C0F308004860206908B16D1C05E07C
:1018D000AD1C03E0216815F8010B4860E08C00287E
:1018E000D8D14B46002240212046009700F08DFAC7
:1018F00008B10320CCE7202084F839000020C7E796
:101900000220C5E77047FEE7F0B587B014216846AE
:10191000FEF7A0FC29480024016841F02001016085
:10192000016801F020010591016841F0800101602A
:10193000016801F080010591016841F00401016036
:10194000016801F004010591016841F001010160A5
:10195000016801F001010591016841F00801016091
:10196000016801F008010591016841F04001016042
:101970000068134E00F04000059001220721304618
:10198000FFF70FFB0F4F012208213846FFF709FB35
:10199000072000900125CDE90154694630460394A3
:1019A000FFF71CFA0820CDE900050320CDE902402D
:1019B00069463846FFF712FA07B0F0BD30380240EA
:1019C00000140240000C0240FEB5394CC023A8218F
:1019D000237061701F22A2706420E070251DFF201B
:1019E00028706870A87000272E1DEF70337071701A
:1019F000B2700120F07002F0F9FC2068E17803BABF
:101A00000A0603F47F4342EA032203BA00BA03F44E
:101A10007F03084342EA1322A4F10C0142EA10605A
:101A200008602868E97803BA0A0603F47F4342EAAB
:101A3000032203BA00BA03F47F03084342EA1322E5
:101A4000A4F1080142EA106008603068F17803BA36
:101A50000A0603F47F4342EA032203BA03F47F0336
:101A600000BA42EA1322084342EA1060211F231FF2
:101A70000860104810490097CDE901101A1F111F86
:101A80000E4803F01BF80D4803F0BCF80B4890F823
:101A900033004007094802D503F000F901E003F0E4
:101AA000B7F803B00649BDE8F040044803F0EEB8CB
:101AB0000C000020512D0008E92E0008C000002075
:101AC000952F000810B5034801F052FABDE8104008
:101AD00004F062B8C00000200C4810B50A4901604B
:101AE0004FF4E1314160002181600C22C160C0E906
:101AF00004128161C161FFF737FE002803D0BDE801
:101B00001040FEF7C9BC10BD00480040E031002085
:101B1000FEE7704770477047FFF74EBA30B593B095
:101B200030216846FEF796FB14210CA8FEF792FBC5
:101B300019480025016841F080510160006800F0FB
:101B4000805011901548016841F48041016000689F
:101B5000022400F4804011900120009000040190C4
:101B60008001CDE9064008AA0420A82182E81300DC
:101B70000B906846FFF7AAFB0CA90F2081E8310003
:101B80004FF4A0500F90E002109005210CA8FFF731
:101B9000ADFA13B030BD0000403802400070004084
:101BA0000548016841F47001016003494FF000608D
:101BB000803908607047000088ED00E010B5806B48
:101BC0000021C185C184FFF743FD10BD0168CA68CB
:101BD00022F49072CA6001684A6922F001024A61E7
:101BE000202180F83A10704710B590F83A10222959
:101BF00001D0022010BD8168B1F5805F11D001696C
:101C0000002901681FD0496801F07F03816A4A1CDE
:101C100082620B70C18D491E0904090CC18518D060
:101C20002BE00269816A002A0268526805D0D2B2AC
:101C30000A80816A491C8162ECE7C2F308020A80CB
:101C4000816A891CF7E74A68816A4B1C83620A70C3
:101C5000E0E70168CA6822F02002CA600168CA6829
:101C600022F48072CA6001684A6922F001024A6166
:101C7000202180F83A10FFF7E7FD002010BD00009A
:101C80002DE9F041044600680169E26821F4405101
:101C9000114301612169A068E26908436169114348
:101CA00008432168CA6849F20C639A430243CA6038
:101CB00020684169A26921F4407111434161E069E2
:101CC000192764253226B0F5004F354A354920687A
:101CD0004FF0000806D0884201D0904236D1FFF77D
:101CE000B5FA35E0884201D0904202D1FFF7AEFA52
:101CF00001E0FFF79BFA61684A18A0FB070148EB77
:101D00000803FEF75DFA0146B0FBF5F00201B1FBF6
:101D1000F5F06FF01803584301EB800006EBC000AC
:101D2000B0FBF5F000F0F80002EB4002B1FBF5F07B
:101D3000584301EB800006EBC000B0FBF5F000F06B
:101D40000700216810448860BDE8F081FFF76EFA53
:101D500061688B0F8A00A0FB0701FEF731FA01468C
:101D6000B0FBF5F06FF01802504301EB800006EB7A
:101D70000010B0FBF5F000F0F002B1FBF5F002EB63
:101D80000012B1FBF5F06FF01803584301EB80002F
:101D900006EB0010B0FBF5F000F00F00D1E70000FB
:101DA000001401400010014090F83910212901D0A1
:101DB000022070478168B1F5805F016A0BD04A1C30
:101DC0000262026809785160C18C491E0904090C3D
:101DD000C1840ED017E009880268C1F30801516080
:101DE00001690029016A02D0491C0162ECE7891CE3
:101DF000FBE70168CA6822F08002CA600068C16817
:101E000041F04001C160002070472DE9F041984643
:101E100017460E460446069D1DE0681C1BD02DB1DA
:101E2000FFF7C4F8A0EB0800A84214D92068C168E5
:101E300021F4D071C1602068416921F00101416144
:101E4000202084F8390084F83A00002084F8380013
:101E50000320BDE8F0812068006836EA000004D065
:101E60000020B842D9D00020F3E70120F9E70000B4
:101E70000148FFF7EFBB0000E0310020FEE7000063
:101E80000FB4054B10B503A9044A029800F028F8D6
:101E900010BC5DF814FB000045300008BC000020B9
:101EA0000907090E002804DB00F1E02080F8001487
:101EB000704700F00F0000F1E02080F8141D70471B
:101EC00002E008C8121F08C1002AFAD17047704703
:101ED000002001E001C1121F002AFBD17047000061
:101EE0002DE9FF4F8BB09A460F460546002606E0C7
:101EF00025280BD052460D9990476D1C761C2878EA
:101F00000028F5D10FB03046BDE8F08F0024A04680
:101F10000122604900E0044315F8013F203B02FA2A
:101F200003F00842F7D128782E2817D115F8010FB1
:101F300044F004042A280ED06FF02F022878A0F174
:101F4000300109290AD808EB880102EB410100EBB6
:101F500001086D1CF2E757F8048B6D1C287869287E
:101F60003ED006DC0028CDD063280BD0642804D1F5
:101F700036E0732810D075284BD052460D99904703
:101F8000761C85E017F8040B8DF8000000208DF812
:101F90000100E946012003E057F8049B4FF0FF30B1
:101FA00061074FF0000401D40AE0641C44450DDAD7
:101FB0008442FADB19F804100029F6D106E0641C0B
:101FC0008442FCDB19F804100029F8D1264404E00F
:101FD00019F8010B52460D999047641EF8D257E04C
:101FE00001CF4FF00A0B002802DA40422D2102E017
:101FF000210504D52B218DF82410012103E0E107F0
:1020000005D02021F7E70DF1200908910CE000210F
:10201000F9E701CF4FF00A0BF9E75946FEF732F91D
:1020200001F1300209F8012D0028F6D1ADEB0900CD
:1020300000F1200B600701D44FF00108D84502DD04
:10204000A8EB0B0000E000208046002406E009A871
:102050005246005D0D999047641C761C0898844296
:10206000F5DB04E0302052460D999047761CB8F11C
:102070000001A8F10108F5DC05E019F8010B524652
:102080000D999047761CBBF10001ABF1010BF4DC1C
:102090006D1C34E70928010010B5044640688047EC
:1020A00022462068BDE81040014903F09BBD0000B6
:1020B0009920000870B505460C46880706D006A38F
:1020C0004FF4CE7210A118A0FFF7DAFEA8680068DE
:1020D0002060A868046070BD2E2E2F4D6964646C6A
:1020E0006577617265732F54686972645F506172BD
:1020F00074792F4C7749502F7372632F636F726519
:102100002F6D656D702E63006D656D705F66726515
:10211000653A206D656D2070726F7065726C792004
:10212000616C69676E656400417373657274696F91
:102130006E2022257322206661696C6564206174BB
:10214000206C696E6520256420696E2025730A0065
:1021500010B580680468002C0CD021680160A007CD
:1021600006D005A34FF4A4720FA118A0FFF788FEB4
:10217000204610BD002010BD2E2E2F4D6964646CCA
:102180006577617265732F54686972645F5061721C
:1021900074792F4C7749502F7372632F636F726578
:1021A0002F6D656D702E63006D656D705F6D616C78
:1021B0006C6F633A206D656D702070726F70657220
:1021C0006C7920616C69676E6564000041737365AA
:1021D0007274696F6E2022257322206661696C65B6
:1021E00064206174206C696E6520256420696E200E
:1021F00025730A0070B50A4D0646002404EB44001E
:1022000005EBC000017D29B18068B04202D12046B3
:1022100000F034F9641CE4B20A2CEFD370BD000066
:10222000B06600202DE9F74F84B04FF00A0B002470
:102230000646DA465F46D94602940194CDF800403E
:102240004F4904EB440001EBC008039098F8145088
:102250000A2F16D0002D24D0012D08D0022D06D231
:1022600048A340F2251255A164A0FFF709FE66B10C
:102270003168D8F80400814207D160B207B0BDE8E8
:10228000F08F002DE8D167B20BE0012D17D0022DA1
:1022900007D3B8F812000099884202D34FFA84FAA3
:1022A0000090641CE4B20A2CCAD3059881074FF051
:1022B000FF30E3D40A2F18D01ADAFCB242E03048DB
:1022C000039950F831000028B8F8120006D002999E
:1022D0008842E6D34FFA84F90290E2E701998842F6
:1022E000DFD34FFA84FB0190DBE70599C907C5D01E
:1022F000BAF10A0F0FDA0AF0FF04214804EB440197
:1023000050F8310090B11FA340F26F1245A13BA0DD
:10231000FFF7B6FD0AE0BBF10A0F02DA0BF0FF048B
:1023200004E0B9F10A0FA9DA09F0FF040A2C06D378
:1023300014A340F2811241A130A0FFF7A1FD204675
:1023400000F09CF80A2C06D30EA340F285123BA1A4
:102350002AA0FFF795FD0A4804EB440100EBC105F4
:10236000287D30B107A34FF4C37239A123A0FFF732
:1023700087FD0EB130686860002068827DE700004C
:10238000B06600202E2E2F4D6964646C65776172F3
:1023900065732F54686972645F50617274792F4C51
:1023A0007749502F7372632F636F72652F69707650
:1023B000342F6574686172702E63000073746174E9
:1023C00065203D3D204554484152505F535441548F
:1023D000455F50454E44494E47207C7C20737461D4
:1023E0007465203E3D204554484152505F5354414E
:1023F00054455F535441424C45000000417373659E
:102400007274696F6E2022257322206661696C6583
:1024100064206174206C696E6520256420696E20DB
:1024200025730A006172705F7461626C655B695D3F
:102430002E71203D3D204E554C4C000069203C2023
:102440004152505F5441424C455F53495A45000048
:102450006172705F7461626C655B695D2E7374613B
:102460007465203D3D204554484152505F535441CE
:1024700054455F454D5054590000000070B5074C5D
:1024800000EB4005002654F8350018B103F06AF857
:1024900044F8356004EBC500067570BDB0660020D9
:1024A0002DE9F04385B00D00074609D07C684FF454
:1024B00080782088404539D12079062836D109E036
:1024C0001CA34FF4227229A12CA0FFF7D9FC05B060
:1024D000BDE8F0836079042828D16088082825D1D8
:1024E000D4F80E000490A169686820B1814202D13D
:1024F0000126334601E00026022304F1080291463A
:1025000004A9284600F096FBE08840450ED16EB144
:10251000022204ABCDE90232291DCDE9001905F1F3
:102520002D0319464A46284600F086FA384603F03D
:1025300019F8CCE72E2E2F4D6964646C65776172B3
:1025400065732F54686972645F50617274792F4C9F
:102550007749502F7372632F636F72652F6970769E
:10256000342F6574686172702E6300006E65746943
:102570006620213D204E554C4C0000004173736590
:102580007274696F6E2022257322206661696C6502
:1025900064206174206C696E6520256420696E205A
:1025A00025730A00FEB515460E46040006D142A367
:1025B00040F21B324EA152A0FFF762FC36B93EA397
:1025C0004FF4477258A14EA0FFF75AFC35B93AA311
:1025D00040F21D3257A14AA0FFF752FC214628685D
:1025E00000F0BCFE08B1574B39E02868C0F3031176
:1025F0000E291FD0A168636800EA01020B409A42CD
:1026000008D080B2A0F57E41A93903D0E06880B33C
:1026100004F10C054C4A4D49137803EB430001EBE0
:10262000C000077D022F28D32F684068874224D13D
:102630001A4631E001208DF8040000208DF80500D5
:102640005E208DF80600687801AB00F07F008DF801
:102650000700A8788DF80800E8788DF809004FF495
:102660000060009004F12D023146204600F0C0FBCE
:10267000FEBDFFE76FF00300FAE7002000EB400328
:1026800001EBC3031F7D022F0BD32F685B689F42B2
:1026900007D1C0B2107002463146204600F058F80B
:1026A000E6E7401C40B20A28E8DB324629462046CD
:1026B00000F0D6F8DCE700002E2E2F4D6964646C24
:1026C0006577617265732F54686972645F506172D7
:1026D00074792F4C7749502F7372632F636F726533
:1026E0002F697076342F6574686172702E630000F4
:1026F0006E6574696620213D204E554C4C000000EB
:10270000417373657274696F6E202225732220668F
:1027100061696C6564206174206C696E6520256454
:1027200020696E2025730A007120213D204E554CF2
:102730004C00000069706164647220213D204E5598
:102740004C4C00006C8C0008B0000020B0660020EB
:102750002DE9F8430646154688461C4802EB45011C
:1027600000EBC104207D022806D219A34FF43B726E
:1027700025A131A0FFF784FB144A05EB4501207D1C
:1027800002EBC1050C35022813D1608A0327B0F58E
:102790008E7F04D9211D304600F006FA07E0B0F51F
:1027A000877F06D32A46211D304600F003FA00B980
:1027B00027754FF4006000902B4606F12D0241462C
:1027C000304600F015FBBDE8F8830000B06600203D
:1027D0002E2E2F4D6964646C6577617265732F547A
:1027E000686972645F50617274792F4C7749502F19
:1027F0007372632F636F72652F697076342F6574FF
:10280000686172702E6300006172705F7461626C47
:10281000655B6172705F6964785D2E737461746565
:10282000203E3D204554484152505F535441544549
:102830005F535441424C4500417373657274696F34
:102840006E2022257322206661696C6564206174A4
:10285000206C696E6520256420696E2025730A004E
:102860002DE9FC5F82462D300190884608681446A9
:102870004FF0FF364FF0000B514600F06FFD00287F
:1028800028D1D8F80000C0F303110E2922D0B8F1E6
:10289000000F1FD000281DD0524601214046FFF7EF
:1028A000C1FC070018D4394907EB470901EBC905FA
:1028B000287D002812D0012808D0022806D234A38F
:1028C00040F2C73240A14AA0FFF7DAFABBF1000F8D
:1028D0000AD108E06FF00F00BDE8FC9F01202875C9
:1028E000C5F808A000E034B94146504600F05CF954
:1028F0000646002CF0D0287DDFF8908002280DD30A
:10290000454805F10C03214607704FF40060009024
:102910005046019A00F06CFA064635E0012833D1A2
:1029200025464FF47B7668892989884207D1286833
:1029300028B117A3324639A12DA0FFF7A1FA287BB1
:1029400001280ED029890022022002F0C1F90500D9
:1029500018D0214602F082FC58B1284602F002FE4F
:1029600010E02D68002DDED12546204603F010F83A
:1029700045B158F8390008B102F0F4FD48F8395073
:10298000002601E04FF0FF363046A5E7B066002094
:102990002E2E2F4D6964646C6577617265732F54B8
:1029A000686972645F50617274792F4C7749502F57
:1029B0007372632F636F72652F697076342F65743D
:1029C000686172702E6300006172705F7461626C86
:1029D000655B695D2E7374617465203D3D205045D3
:1029E0004E44494E47206F7220535441424C45009B
:1029F000417373657274696F6E202225732220669D
:102A000061696C6564206174206C696E6520256461
:102A100020696E2025730A00B00000206E6F2070C0
:102A200061636B65742071756575657320616C6C8D
:102A30006F776564210000002DE9FF4F81B0984653
:102A4000DDE90FA9DDF838B006004FF0000706D128
:102A50002BA34FF48B6238A13BA0FFF711FA0022A1
:102A60001C21022002F034F9050046D068891C2898
:102A700006D223A340F263423DA133A0FFF700FA40
:102A80006C68119801F0B0FCE08096F82C000628E4
:102A900006D01BA340F26A4242492BA0FFF7F0F98F
:102AA000D8F80010A160B8F80400A081DAF800108E
:102AB000C4F81210BAF80400E082DBF80000C4F891
:102AC0000E00D9F80000A0614FF48070208008202B
:102AD0006080062020710420607140F60600DDE968
:102AE000022300902946304600F082F9284602F081
:102AF00039FD384605B0BDE8F08F4FF0FF30F9E7FB
:102B00002E2E2F4D6964646C6577617265732F5446
:102B1000686972645F50617274792F4C7749502FE5
:102B20007372632F636F72652F697076342F6574CB
:102B3000686172702E6300006E6574696620213DC5
:102B4000204E554C4C000000417373657274696FE0
:102B50006E2022257322206661696C656420617491
:102B6000206C696E6520256420696E2025730A003B
:102B7000636865636B20746861742066697273743E
:102B800020706275662063616E20686F6C642073CC
:102B90007472756374206574686172705F686472C2
:102BA00000000000388E0008014A00F003B8000061
:102BB0006C8C00087FB5064D031D0124CDE900355E
:102BC000CDE9021429331946FFF736FF04B070BD72
:102BD000728C000870B5164D002400BF04EB440051
:102BE00005EBC002107DF0B1518A491C89B25182B7
:102BF000B1F5967F0AD2012806D003280AD004280E
:102C00000AD001280BD00EE0052908D32046FFF793
:102C100035FC08E0042000E00220107503E0111DDF
:102C20009068FFF7C1FF641CE4B20A2CD6D370BDD4
:102C3000B0660020F8B5044690F82C001F461646F2
:102C40000D46062806D020A340F2AB122CA135A0D9
:102C5000FFF716F99DB3286888B3214600F07EFB84
:102C600068BB2878C0F303100E2829D022463946C5
:102C70002846FFF7D7FA002820DB00EB4001334855
:102C8000022300EBC102137594603368D360B388EC
:102C900013820023538250F8315075B140F831301F
:102CA0004FF400600090334604F12D02294620467F
:102CB00000F09EF8284602F055FC0020F8BDFFE722
:102CC0006FF00F00FAE700002E2E2F4D6964646C40
:102CD0006577617265732F54686972645F506172C1
:102CE00074792F4C7749502F7372632F636F72651D
:102CF0002F697076342F6574686172702E630000DE
:102D00006E657469662D3E6877616464725F6C6598
:102D10006E203D3D204554485F4857414444525F32
:102D20004C454E00417373657274696F6E202225A5
:102D30007322206661696C6564206174206C696E21
:102D40006520256420696E2025730A00B066002086
:102D500070B5044640890D460E283CD9606801785C
:102D60008689CA0714D0012905D006221F49FDF71C
:102D70007CFA48B10CE0417851B980785E2807D1DF
:102D8000607B40F0100002E0607B40F00800607360
:102D90006FF00D01082E03D0B6F5C16F1BD10FE007
:102DA00095F83300000716D560890E2813DB2046FE
:102DB00002F08AFC78B92946204600F011FC12E0A6
:102DC00095F83300000706D560890E2803DB2046FE
:102DD00002F07AFC18B1204602F0C4FB03E0294659
:102DE0002046FFF75DFB002070BD00006C8C0008E2
:102DF0002DE9F04104461F4690460E46069801F024
:102E0000F3FA05460E21304602F05EFC18B16FF071
:102E10000100BDE8F0817068858139680160B9887A
:102E20008180D8F80020C0F80620B8F8041041814D
:102E300094F82C00062806D006A340F22B1213A10A
:102E40001FA0FFF71DF831462046A269BDE8F041FA
:102E5000104700002E2E2F4D6964646C65776172F7
:102E600065732F54686972645F50617274792F4C76
:102E70007749502F7372632F6E657469662F65747E
:102E80006865726E65742E63000000006E6574697B
:102E9000662D3E6877616464725F6C656E206D7547
:102EA0007374206265203620666F722065746865D1
:102EB000726E65745F6F7574707574210000000028
:102EC000417373657274696F6E20222573222066C8
:102ED00061696C6564206174206C696E652025648D
:102EE00020696E2025730A0010B5040006D10BA3DB
:102EF0004FF401720EA112A0FEF7C2FF732084F8F6
:102F00003400742084F83500174860611748A061C8
:102F1000204601F03DF9002010BD00002E2E2F5359
:102F200072632F65746865726E657469662E6300DE
:102F30006E6574696620213D204E554C4C000000A2
:102F4000417373657274696F6E2022257322206647
:102F500061696C6564206174206C696E652025640C
:102F600020696E2025730A00A52500083D4300084E
:102F700070B5054601F084F9040009D02A69294694
:102F80009047002804D02046BDE8704002F0EABA1D
:102F900070BD70472DE9FC4100250646019500955E
:102FA00090F83300400742D5254C606868B34FF471
:102FB000805200212046FDF7D5FEFDF7F7FF4FF4C4
:102FC0007A7701906A4601211D48FDF77FFDFDF7E4
:102FD000EDFF0199401AB84217D800988006F1D544
:102FE0006A461F211648FDF771FD0098C10603D5FA
:102FF0004FF40061E16000E0E560400701D5A560A5
:103000000DE04FF48040A06009E0E068A168C008CE
:1030100040EA510082B200210948FDF7A3FE0021D9
:103020000748FDF75FFA0648FDF793FD02E0044804
:10303000FDF7D1FD3046FFF7ACFFBDE8FC81000095
:103040009831002013B54FF6FF73012269460248FC
:10305000FEF7FBFB00981CBDE03100200A4603216F
:1030600000F0F2B82DE9FE4F8A4643490546D1F8F3
:10307000088098F800000007840E142C76D3688925
:10308000042873D36868007800286FD008286DD1B1
:10309000486901F11407C0F303120E2A66D089466D
:1030A000096800F05BF9002860D1288908285DD301
:1030B00004F10E010E46284602F006FB00282DD032
:1030C00028890022204481B2022001F001FE06007E
:1030D0004CD0718904F10800814216D32246414642
:1030E0007068FDF79EF86142304602F0EDFA002864
:1030F00006D022A3AF222FA13CA0FEF7C1FE04E020
:103100002946304602F0AAF818B1304602F02AFAF1
:103110002CE0284602F026FA35460CE0714228469B
:1031200002F0D2FA002806D014A3C02239A12FA0A1
:10313000FEF7A6FE1AE0214628466E6802F0C4FAA1
:10314000A0B968683968FF22C160D9F81010016120
:103150000021317071800272418101228DE80604E4
:103160000A46FF233946284600F004FB2846BDE8FE
:10317000FE4F02F0F7B90000203200202E2E2F4D16
:103180006964646C6577617265732F5468697264F1
:103190005F50617274792F4C7749502F7372632F8F
:1031A000636F72652F697076342F69636D702E635B
:1031B0000000000069636D705F696E7075743A207D
:1031C0006D6F76696E6720722D3E7061796C6F61EC
:1031D0006420746F2069636D702068656164657236
:1031E000206661696C65640A0000000041737365C4
:1031F0007274696F6E2022257322206661696C6586
:1032000064206174206C696E6520256420696E20DD
:1032100025730A0069636D705F696E7075743A207A
:10322000726573746F72696E67206F726967696E19
:10323000616C20702D3E7061796C6F6164206661F5
:10324000696C65640A0000002DE9FF4791468846D5
:10325000064600222421012001F03AFD050031D06C
:103260006889242806D218A340F2611224A12FA055
:10327000FEF706FE6C6877681C2284F8008084F8EC
:1032800001904FF00008A4F80480A4F80680686854
:1032900071680830FCF7C5FFF868039003A800F0D8
:1032A00009FC60B1A4F802800122CDF80080CDE9CC
:1032B0000120FF2303AA0021284600F05BFA2846DC
:1032C00002F050F9BDE8FF872E2E2F4D6964646C23
:1032D0006577617265732F54686972645F506172BB
:1032E00074792F4C7749502F7372632F636F726517
:1032F0002F697076342F69636D702E6300000000B3
:10330000636865636B2074686174206669727374A6
:1033100020706275662063616E20686F6C6420693E
:10332000636D70206D6573736167650041737365CC
:103330007274696F6E2022257322206661696C6544
:1033400064206174206C696E6520256420696E209C
:1033500025730A000A460B21FFF776BF421C12D0E4
:1033600088B191F8332092070BD54B68834208D07F
:10337000896800EA01020B409A4202D10143491CCC
:1033800001D0002070470120704700002DE9F74F61
:1033900086B00446079800251427408DAE1F1438C8
:1033A000C11700EB5170C0F3CF0B60680590017836
:1033B00001F00F01052904D056A340F2E12264A1D7
:1033C0000BE0C08801F010F8C0F30C0102918004FA
:1033D0000AD550A340F2E62267A16EA0FEF750FD89
:1033E000304609B0BDE8F08F208914381FFA80F804
:1033F00080E000BFB8EBCB0F01D34FEACB0080B227
:10340000039000221421022001F062FC5FEA000A0E
:1034100078D06089142806D23EA34FF4427267A187
:103420005CA0FEF72DFD1422DAF804000599FCF7E4
:10343000F8FEDAF804000490039E2BE06089C01BBC
:1034400085B2AE4200D2354615B3042001F0E4FA4D
:103450005FEA000953D060684B463844CDE9000567
:1034600002222946042001F0E7FD0090F0B3204637
:1034700002F08EFA5949C9E904145046009901F046
:103480004BFE701B0604360C06D000272468D5E7D7
:1034900024680027002ED1D1781987B20798418D72
:1034A000029814394145C0F30C0001DA40F4005091
:1034B00000F09AFF0499C8800398143080B200F09D
:1034C00093FF049948800498002141810798514650
:1034D000089A43699847504602F044F80398A8EBCD
:1034E00000001FFA80F80298584401E00DE009E05E
:1034F00080B202905FEA08007FF47CAF71E750462B
:1035000002F030F84FF0FF306BE7484600F000FB68
:10351000F5E700002E2E2F4D6964646C65776172AB
:1035200065732F54686972645F50617274792F4CAF
:103530007749502F7372632F636F72652F697076AE
:10354000342F6970345F667261672E63000000007B
:103550006970345F66726167282920646F65732023
:103560006E6F7420737570706F7274204950206F85
:103570007074696F6E73000069705F6672616728AE
:10358000293A204D4620616C72656164792073652B
:1035900074000000417373657274696F6E20222598
:1035A0007322206661696C6564206174206C696EA9
:1035B0006520256420696E2025730A00746869738C
:1035C000206E656564732061207062756620696E87
:1035D000206F6E652070696563652100F940000801
:1035E0002DE9F05F456806460F4628780421B1EBC7
:1035F000101F03D0304601F0B5FF8BE000F00F0044
:103600004FF6FF7101EA8008688800F0EDFE04467D
:103610003089A04203D92146304602F0EDF8718985
:103620004145E7D33089A042E4D3B8F1140FE1D388
:103630002969DFF838A1C1F303100E28CAF8141065
:10364000EA68CAF8102014D0DFF824B14FF001095D
:103650003C4600BF94F83300C00712D0616881B1C6
:10366000DAF81400884220D02146FFF777FEE0B94F
:1036700007E097F83300C0070FD0786868B13C4680
:1036800013E0B9F1000F0AD09AF814007F2804D093
:103690004FF00009DBF8004002E0002405E0246858
:1036A000BC4200D12468002CD4D13946DAF810008D
:1036B000FFF754FE00289DD19AF81000D146C0F3C0
:1036C00003100E2896D0002C94D0E88830F0C0006B
:1036D00005D0304600F014F906001BD07568C9F813
:1036E0000850C9E90047297830460907890EA9F82A
:1036F0000C10C8F1000101F0E7FF687A012811D031
:1037000006280AD04F462146D9F81400FFF726FEB6
:1037100068B11AE00020BDE8F09F3946304602F05B
:103720007BFF15E039463046FFF79CFC10E0387D02
:10373000C0F303100E2808D04146304601F0C7FF01
:10374000022130467560FFF789FC304601F00AFF20
:103750000021C9F80010C9F80410C9F80810A9F828
:103760000C10C9F81010C9F81410D3E7203200204B
:1037700058000020FEB5DDE90954089E1AB109B1D0
:103780000F6807B9211D0096CDE9015400F002F839
:10379000FEBD00002DE9F84F0546DDE90BA8C08904
:1037A000DDF828B01F4616468946012806D02CA30E
:1037B00040F2333237A13AA0FEF762FB002E38D038
:1037C0001421284601F080FF18B16FF00100BDE818
:1037D000F88F68896C68142806D221A34FF45872B8
:1037E00039A12FA0FEF74CFB277284F809A030689E
:1037F00020614520207084F801B0288900F0F4FD94
:103800003D4F60804FF0000AA4F806A0388800F011
:10381000EBFDA0803888401C3880B9F1000F05D03E
:10382000D9F80000E060A4F80AA006E03348006878
:10383000F8E768686E4600690090B8F82A0040B161
:103840002989814205D9324641462846FFF79EFD27
:10385000BDE7D8F814304046324629469847B6E7C7
:103860002E2E2F4D6964646C6577617265732F54D9
:10387000686972645F50617274792F4C7749502F78
:103880007372632F636F72652F697076342F69705E
:10389000342E6300702D3E726566203D3D20310060
:1038A000417373657274696F6E20222573222066DE
:1038B00061696C6564206174206C696E65202564A3
:1038C00020696E2025730A00636865636B20746845
:1038D000617420666972737420706275662063611A
:1038E0006E20686F6C6420737472756374206970E5
:1038F0005F68647200000000B2000020648D000860
:103900002DE9F05F45688346287800F00F00052810
:103910007DD1E88800F068FDC004070C688800F0DD
:1039200063FD297801F00F01494200EB81001FFA85
:1039300080F8584601F088FC5D4C064620883044EB
:103940000A2809D93146284600F080FB00285ED0BD
:10395000208830440A285AD8A14664684FF0000AEB
:103960000CE06069E968884207D1A069296988424A
:1039700003D1A089A988884203D02468002CF0D103
:1039800006E02CB1E88800F02FFDC0041BD025E034
:10399000032001F041F804000AD13146284600F026
:1039A00055FBB0427FDB032001F036F804007AD0EB
:1039B0002021FCF74FFC0320E077D9F804102160A8
:1039C000C9F8044004E0E08900F00EFDC00405D011
:1039D0001422294604F10800FCF723FCA87940F3DF
:1039E00040156D1C08D007EB080080B2B8425AD3CE
:1039F0004FF6EB71884256D82A465946204600F0C9
:103A0000CFF8411C4FD0B9F80020324400E04AE022
:103A1000A9F8002035B107EB0801A183A17F41F08F
:103A20000101A17701283CD1A08B14221430A0837E
:103A3000606804F10801456828462E68FCF7F1FB30
:103A4000A08B00F0D1FC6880A5F806A0A5F80AA01C
:103A50006FF01308656809E041463046776801F069
:103A600033FE3146284601F057FB3E68002EF3D165
:103A7000D9F804104E468C4205D1002105E00868B3
:103A8000A04202D001460029F9D1204600F0B8F941
:103A9000284601F0D9FB3188081A30802846BDE855
:103AA000F09F0020FBE7584601F05CFDF9E70000BD
:103AB000B400002070B50446134813E090F83310AA
:103AC000CA070FD04A070DD543685BB182682568E5
:103AD000134005EA02069E4214D0890702D4C16849
:103AE0008D420FD000680028E8D10848006840B136
:103AF00090F83310CA0704D0490702D5416800295D
:103B000000D1002070BD0000580000205C000020A3
:103B100010B5040006D106A340F2AE2213A116A0F0
:103B2000FEF7AEF92146BDE81040042000F000BFCA
:103B30002E2E2F4D6964646C6577617265732F5406
:103B4000686972645F50617274792F4C7749502FA5
:103B50007372632F636F72652F697076342F69708B
:103B6000345F667261672E63000000007020213DA3
:103B7000204E554C4C000000417373657274696FA0
:103B80006E2022257322206661696C656420617451
:103B9000206C696E6520256420696E2025730A00FB
:103BA0002DE9F0474C68064692460F4600254FF037
:103BB0000108608800F018FC217801F00F014942EB
:103BC00000EB8109E08800F00FFCC0047C68010C68
:103BD0000020206001EB0900A18083B2E3807268BD
:103BE00026E05068B0F804C0614515D222606DB17E
:103BF000B5F806C061457BD38088834278D82F60B2
:103C0000A088844506D04FF0000803E080888342F6
:103C10006ED8776072B12DE06AD0C288914267D3C6
:103C200025B1EA88624501D04FF0000802680546D8
:103C3000002AD6D1002D12D0E888A188884206D962
:103C400032A340F2AB1240A147A0FEF719F92F6052
:103C5000E888A18888420DD04FF000080AE070681B
:103C6000002806D029A340F2B31249A13EA0FEF7D6
:103C700007F97760BAF1000F02D1B07FC00732D0E8
:103C8000B8F1000F32D07268002A2FD050688088B7
:103C900000282BD12168204629B14C68C088A18812
:103CA0008842F7D022E0B8F1000F1FD032B917A335
:103CB0004FF4EA7244A12CA0FEF7E2F87068406865
:103CC000A04206D111A340F2D5123FA126A0FEF7D3
:103CD000D7F8206830B10DA340F2D7123EA122A040
:103CE000FEF7CEF80120BDE8F08701E00020FAE7FA
:103CF000384601F0A9FA014640480288511A01806D
:103D0000384601F02FFC4FF0FF30ECE72E2E2F4D00
:103D10006964646C6577617265732F546869726455
:103D20005F50617274792F4C7749502F7372632FF3
:103D3000636F72652F697076342F6970345F6672B5
:103D400061672E6300000000636865636B20667224
:103D500061676D656E747320646F6E2774206F7673
:103D600065726C6170000000417373657274696FF5
:103D70006E2022257322206661696C65642061745F
:103D8000206C696E6520256420696E2025730A0009
:103D90006E6F2070726576696F75732066726167E9
:103DA0006D656E742C2074686973206D7573742052
:103DB000626520746865206669727374206672613A
:103DC000676D656E7421000073616E69747920639C
:103DD0006865636B0000000076616C6964617465FE
:103DE0005F646174616772616D3A6E6578745F706B
:103DF000627566213D4E554C4C000000B400002019
:103E000070B504460C480D464168A14202D12168B4
:103E100041600AE0002D06D108A340F2451216A128
:103E20001CA0FEF72DF8206828602146BDE87040F0
:103E3000032000F07DBD0000B40000202E2E2F4D89
:103E40006964646C6577617265732F546869726424
:103E50005F50617274792F4C7749502F7372632FC2
:103E6000636F72652F697076342F6970345F667284
:103E700061672E630000000073616E6974792063CE
:103E80006865636B206C696E6B6564206C69737424
:103E900000000000417373657274696F6E20222503
:103EA0007322206661696C6564206174206C696EA0
:103EB0006520256420696E2025730A002DE9F047EE
:103EC000054600240F46A94205D12FA3AB223DA1F0
:103ED0003FA0FDF7D5FF002F08D03868A84205D0D5
:103EE00029A3AD2244A13AA0FDF7CAFF6E684FF4A2
:103EF00080387068818800291AD1006868601422AF
:103F000005F108017068FCF78CF901213046FFF7D4
:103F100021FA304601F098F90446404505D31AA32A
:103F2000BC223AA12AA0FDF7ABFF304601F01AFBF4
:103F30006E6812E07068B1460668484601F084F980
:103F40000444444505D310A3CC2230A120A0FDF7A2
:103F500097FFA4B2484601F005FB002EEAD139468E
:103F60002846FFF74DFF314D2888A04205D206A311
:103F7000D2222FA116A0FDF783FF2888001B2880DE
:103F80002046BDE8F08700002E2E2F4D6964646C3A
:103F90006577617265732F54686972645F506172EE
:103FA00074792F4C7749502F7372632F636F72654A
:103FB0002F697076342F6970345F667261672E6383
:103FC000000000007072657620213D20697072004B
:103FD000417373657274696F6E20222573222066A7
:103FE00061696C6564206174206C696E652025646C
:103FF00020696E2025730A00707265762D3E6E650D
:104000007874203D3D206970720000007062756612
:10401000735F6672656564202B20636C656E203C5F
:104020003D2030786666666600000000B40000201F
:1040300069705F72656173735F70627566636F75D7
:104040006E74203E3D20636C656E00002DE9F047E4
:104050001D4F894606460024002213461146154688
:10406000786822E0D0F814C0D6F80C80C4450BD193
:10407000D0F818C0D6F81080C44505D1B0F80CC0EF
:10408000B6F80480C44509D06D1C2AB190F81FC051
:1040900092F81F80C44501D802461946D0F800C0E6
:1040A000BCF1000F00D0034660460028DAD11AB1F7
:1040B0001046FFF703FF04444C4501DA012DCBDC29
:1040C0002046BDE8F0870000B400002070B5094824
:1040D000002544680BE0E07F20B1401EE0772546D4
:1040E000246804E0204624682946FFF7E7FE002CF8
:1040F000F1D170BDB400002010B5040006D108A3B2
:104100004FF42E7215A118A0FDF7BAFE606908B130
:1041100001F028FA2046BDE81040FFF7F9BC000086
:104120002E2E2F4D6964646C6577617265732F5410
:10413000686972645F50617274792F4C7749502FAF
:104140007372632F636F72652F697076342F697095
:10415000345F667261672E63000000007063722036
:10416000213D204E554C4C00417373657274696F4C
:104170006E2022257322206661696C65642061745B
:10418000206C696E6520256420696E2025730A0005
:104190007CB5374D04463548286001206860002012
:1041A00028828DF8000080218DF80110E1218DF822
:1041B00002108DF804008DF803008DF805006946A3
:1041C000C5E90510E8614FF400002A4E286200227C
:1041D00008213046FCF7E5FE3720FCF771F9012293
:1041E00008213046FCF7DDFE3720FCF769F9284648
:1041F000FCF702FB28B994F8330040F0040084F87F
:10420000330004231C4A1D491948FCF73DFA1B4A98
:1042100004238032A2F580711548FCF7FBF90620D3
:1042200084F82C006869007884F82D00686940786B
:1042300084F82E006869807884F82F006869C07857
:1042400084F830006869007984F831006869407941
:1042500084F8320040F2DC5024F82A0F607A40F0F3
:104260000A0060720248FCF774FC7CBD00800240CA
:1042700098310020000C0240C8190020780100206D
:104280002DE9F84F0020044600902B48FCF739FA3E
:1042900010B10020BDE8F88F2748818FD0F84090FA
:1042A0000904090C2DD00322042000F011FD009018
:1042B00038B32148009D40F2F45BD0F830806E891D
:1042C00000270FE0A4F2F4525242FBF7AAFFD8F8FD
:1042D0000C008046D0F808903F1BAAF2F456002448
:1042E00007F2F457686806EB040ADA4509EB0401A3
:1042F0003844E7D83246FBF794FF2D683444002D4C
:10430000DDD10D480022016B05E00B6843F000434E
:104310000B60C968521C836B9342F6D800218163FD
:10432000006800F580504269120602D58022426181
:1043300081600098AEE70000983100202DE9F05F21
:1043400027480D46C66A002083460446D6F808A0D2
:1043500031E0306800280CDB6F894FF0000818E06E
:10436000A4F2F4525242FBF75CFFF6683068002872
:1043700002DA6FF0070025E0D6F808A0A8EB0400E9
:1043800000F2F458ABEB0400A9F2F45700F2F45B2E
:10439000002407EB040940F2F451894569680AEBEF
:1043A00004004144DCD83A46FBF73BFF0BEB070027
:1043B0002D683C448346002DCBD101460848FCF7CC
:1043C0004CFC00200649096801F580514A699206B3
:1043D00003D520224A6100224A60BDE8F09F000018
:1043E0009831002000BA704740BA704710B500F00D
:1043F000C5F800F0EBFA00F0D3FB02F00BF9BDE8D2
:10440000104001F08FBC0000FCF7DEFDFDF786FBDD
:10441000FDF77AFAFDF760FBFDF7D6FA0BA0FDF782
:104420002FFD0E4C4FF4FA752846FCF749F8012190
:104430002046FCF7AFFD02212046FCF7ABFD04212E
:104440002046FCF7A7FDFDF73DFBEDE753544D3348
:10445000322073746172740A00000000001402407C
:1044600070B5040032D0A00706D019A34FF4D6725D
:1044700023A12CA0FDF704FD344D2868844202D30B
:104480006868844206D312A34FF4D77230A125A0E6
:10449000FDF7F6FC2868844218D36868844215D278
:1044A00014F8040C083C30B909A34FF4E0722EA1B3
:1044B0001CA0FDF7E5FC00202071A868844200D212
:1044C000AC602046BDE8704001F0A8BA70BD0000A5
:1044D0002E2E2F4D6964646C6577617265732F545D
:1044E000686972645F50617274792F4C7749502FFC
:1044F0007372632F636F72652F6D656D2E6300009D
:104500006D656D5F667265653A2073616E69747979
:1045100020636865636B20616C69676E6D656E749E
:1045200000000000417373657274696F6E2022256C
:104530007322206661696C6564206174206C696E09
:104540006520256420696E2025730A00280000205C
:104550006D656D5F667265653A206C6567616C209C
:104560006D656D6F727900006D656D5F6672656572
:104570003A206D656D2D3E757365640010B50A486F
:104580000A4A20F003004FF4C86310600021038042
:104590004180017100F5C861012451600C710B80EC
:1045A0004B80906010BD00003B32002028000020AE
:1045B0002DE9F047002874D04FF6FC71C01C00EACA
:1045C00001044FF4C8690C2C01D20C2401E04C45C5
:1045D0006CD8374EC4F5C8633268B068811A89B2A6
:1045E00062E055182F79002F5DD12F887F1A083F80
:1045F000A74258D32B8804F114075B1A083B4FF0ED
:10460000010CBB4215D30B1908339FB2D3194FF0DD
:10461000000883F80480B5F80080A3F80080598072
:104620002F8085F804C01988494504D0931CCF52C7
:1046300001E085F804C0854213D1716801E000886B
:10464000104403790BB18842F9D1B060884208D098
:10465000007930B117A340F2CF2222A128A0FDF7A4
:104660000FFC281971680830884206D911A340F25E
:10467000D3222DA122A0FDF703FCA8070FD00DA384
:1046800040F2D52234A11EA0FDF7FAFB09A340F2A7
:10469000D72200E005E03CA119A0FDF7F1FB05F1F0
:1046A0000800BDE8F087515A8B429AD80020F8E7FD
:1046B000280000202E2E2F4D6964646C657761728E
:1046C00065732F54686972645F50617274792F4CFE
:1046D0007749502F7372632F636F72652F6D656D0D
:1046E0002E6300006D656D5F6D616C6C6F633A20C9
:1046F000216C667265652D3E75736564000000006F
:10470000417373657274696F6E202225732220666F
:1047100061696C6564206174206C696E6520256434
:1047200020696E2025730A006D656D5F6D616C6C8C
:104730006F633A20616C6C6F6361746564206D65B2
:104740006D6F7279206E6F742061626F7665207272
:10475000616D5F656E642E006D656D5F6D616C6C83
:104760006F633A20616C6C6F6361746564206D6582
:104770006D6F72792070726F7065726C7920616CE8
:1047800069676E65642E00006D656D5F6D616C6CB0
:104790006F633A2073616E69747920636865636B37
:1047A00020616C69676E6D656E7400002DE9F047DD
:1047B00005464FF6FC70C91C01EA00044FF4C86AB4
:1047C0000C2C01D20C2401E0544528D8334F386812
:1047D000854202D37868854206D331A340F2F312B2
:1047E0003BA141A0FDF74CFB386885423ED3796878
:1047F0008D423BD2A5F10806B846301A87B2308800
:10480000C01B08381FFA80F94C4506D924A340F292
:1048100006223FA134A0FDF733FB4C4503D94FF0EE
:104820000000BDE8F08721D03288D8F8001040465B
:1048300002EB01084FF0000398F80420C2B104F124
:1048400014024A4512D83A19083294B2D0F808C076
:104850000A19624500D28260137130881080578037
:1048600034801088504501D0891C44522846D8E72E
:104870003A1908328468B8F800C092B2444501D1B0
:104880008C18846088180371A0F800C047803280BB
:1048900000885045EAD0891C4252E7E728000020F2
:1048A0002E2E2F4D6964646C6577617265732F5489
:1048B000686972645F50617274792F4C7749502F28
:1048C0007372632F636F72652F6D656D2E630000C9
:1048D0006D656D5F7472696D3A206C6567616C20FF
:1048E0006D656D6F72790000417373657274696FE5
:1048F0006E2022257322206661696C6564206174D4
:10490000206C696E6520256420696E2025730A007D
:104910006D656D5F7472696D2063616E206F6E6C82
:104920007920736872696E6B206D656D6F727900A6
:10493000082806D307A340F2DB1212A118A0FDF746
:104940009FBA002904D0204A52F82000FDF7B2BBDC
:10495000704700002E2E2F4D6964646C657761727C
:1049600065732F54686972645F50617274792F4C5B
:104970007749502F7372632F636F72652F6D656D6A
:10498000702E63006D656D705F667265653A2074A8
:10499000797065203C204D454D505F4D41580000D9
:1049A000417373657274696F6E20222573222066CD
:1049B00061696C6564206174206C696E6520256492
:1049C00020696E2025730A00D88C000830B5064D8A
:1049D000002400BF55F8240000F008F8641CA4B2BD
:1049E000082CF7D330BD0000D88C00088268002165
:1049F00011604168C91C21F00301002207E08368AF
:104A0000521C1B680B608368196003881944438833
:104A10009342F4DC7047000010B5082808D308A3BF
:104A200040F2871212A11AA0FDF72AFA002010BD49
:104A3000214951F82000BDE81040FDF789BB000076
:104A40002E2E2F4D6964646C6577617265732F54E7
:104A5000686972645F50617274792F4C7749502F86
:104A60007372632F636F72652F6D656D702E6300B7
:104A70006D656D705F6D616C6C6F633A20747970F9
:104A800065203C204D454D505F4D415800000000D1
:104A9000417373657274696F6E20222573222066DC
:104AA00061696C6564206174206C696E65202564A1
:104AB00020696E2025730A00D88C00082DE9F04784
:104AC000044608A8984690E8E00091468A46002EE1
:104AD00005D115A3FB2221A126A0FDF7D1F90020C5
:104AE0006060A060E06084F83300032184F828103F
:104AF000E061C4E90805294D43464A46287884F810
:104B00003600401C287051462046276100F056F8B8
:104B10002046B04710B10020BDE8F08768682060EB
:104B200020466C60F8E700002E2E2F4D6964646CFF
:104B30006577617265732F54686972645F50617242
:104B400074792F4C7749502F7372632F636F72659E
:104B50002F6E657469662E63000000004E6F206939
:104B60006E69742066756E6374696F6E206769760E
:104B7000656E0000417373657274696F6E20222543
:104B80007322206661696C6564206174206C696EB3
:104B90006520256420696E2025730A0054000020DA
:104BA0007047C90709D04168002906D090F8331032
:104BB000090702D5011DFDF7F7BF70472DE9F04148
:104BC0001E46054617460C000FD0206868B11146F6
:104BD000284600F05FF83146284600F030F82146BC
:104BE0002846BDE8F04100F02FB8284600F02CF828
:104BF0003946284600F04EF831462846BDE8F041D7
:104C000000F01DB801498860704700005400002082
:104C100010B5044690F83300C1070FD020F0010012
:104C200084F83300000702D52046FDF7E3FAE16976
:104C3000002903D02046BDE81040084710BD01B14F
:104C40000968C1607047000038B50D00044601D006
:104C5000286801E00C4800680090616888420FD025
:104C60006946201D02F048F95DB1286860600121A5
:104C70002046FFF796FFE169002901D020468847CA
:104C800038BD0020F2E70000648D0008002800D045
:104C90000162704701B109688160704710B5044630
:104CA00090F83300C10711D140F0010084F83300BF
:104CB000E16909B12046884794F83300400705D5DB
:104CC0002046BDE810400321FFF76BBF10BD000078
:104CD0002DE9F05F16460F4605281FD2DFE800F0E9
:104CE000030507090900362504E0222502E00E2508
:104CF00000E000254FF0010A4FF00008002E77D0A9
:104D0000012E76D0022EFCD0032E0CD064A34FF4DB
:104D1000C6726FA175A0FDF7B3F893E060A34FF4DE
:104D20008B727CA1F6E70720FFF776FE040079D0AE
:104D300060191330267320F00300C4E90080800757
:104D400006D057A34FF4947279A168A0FDF798F8A4
:104D5000ED1C25F00300C0F514702781B84200D97E
:104D600038466081616804F5187B0144594506D9CD
:104D70004BA34FF497727AA15CA0FDF781F89420C1
:104D8000B0EB950F06D146A340F2311281A157A096
:104D9000FDF776F8A4F80EA06089A1463F1A3EE020
:104DA0000720FFF739FE05003DD02E7385F80D80F2
:104DB000C5F800804FF6FF70C9F80050874206DB47
:104DC00037A34FF4A67280A148A0FDF759F8B8B2F6
:104DD0004FF414712881884200D30846688105F198
:104DE00010006860800709D02DA340F2511201E045
:104DF0001DE043E079A13DA0FDF742F860896168BC
:104E00000144594506D926A340F2531254A137A0B4
:104E1000FDF736F8A5F80EA06889A9463F1A002FBD
:104E2000BEDC37E00FE0204600F09CFB0AE005F115
:104E3000130020F00302F81C20F00301501880B288
:104E4000814202D90020BDE8F09FFFF7B1FB0400CA
:104E5000F9D06019133020F0030161602781678168
:104E6000C4F8008084F80C80880713D00CA34FF49A
:104E7000BB7266A11DA0FDF703F80BE00620FFF74B
:104E8000CBFD0400DFD0C4F8048027816781C4F81B
:104E900000802673A4F80EA084F80D802046D2E787
:104EA0002E2E2F4D6964646C6577617265732F5483
:104EB000686972645F50617274792F4C7749502F22
:104EC0007372632F636F72652F706275662E630055
:104ED000706275665F616C6C6F633A206572726FA9
:104EE0006E656F757320747970650000417373652A
:104EF0007274696F6E2022257322206661696C6569
:104F000064206174206C696E6520256420696E20C0
:104F100025730A00706275665F616C6C6F633A207E
:104F20006261642070627566206C61796572000050
:104F3000706275665F616C6C6F633A207062756653
:104F400020702D3E7061796C6F61642070726F709B
:104F500065726C7920616C69676E656400000000A1
:104F6000636865636B20702D3E7061796C6F61645E
:104F7000202B20702D3E6C656E20646F6573206E53
:104F80006F74206F766572666C6F772070627566DD
:104F900000000000504255465F504F4F4C5F425555
:104FA0004653495A45206D757374206265206269C5
:104FB00067676572207468616E204D454D5F414C96
:104FC00049474E4D454E540072656D5F6C656E20CD
:104FD0003C206D61785F7531365F74007062756674
:104FE0005F616C6C6F633A207062756620712D3E54
:104FF0007061796C6F61642070726F7065726C792A
:1050000020616C69676E65640000000070627566FF
:105010005F616C6C6F633A20706275662D3E7061E3
:10502000796C6F61642070726F7065726C79206149
:105030006C69676E6564000070B5DDE9044505289C
:1050400013D2DFE800F0030507090900362004E069
:10505000222002E00E2000E00020C01C20F003000F
:105060004618AE4209D9002070BD0CA340F2C5120B
:1050700016A11FA0FCF704FFF5E700251D6014B181
:105080002044586000E05D60022058731981598106
:105090001A730120D881184670BD00002E2E2F4DA6
:1050A0006964646C6577617265732F5468697264B2
:1050B0005F50617274792F4C7749502F7372632F50
:1050C000636F72652F706275662E6300706275661D
:1050D0005F616C6C6F6365645F637573746F6D3A69
:1050E000206261642070627566206C61796572006F
:1050F000417373657274696F6E2022257322206676
:1051000061696C6564206174206C696E652025643A
:1051100020696E2025730A0070B50D4608B1002D78
:1051200008D1BDE8704014A34FF453721EA12CA007
:10513000FCF7A6BE0446006820B121892A891144E3
:105140002181F7E72089618988420FD00AA340F2C4
:1051500055322DA122A0FCF793FE206830B106A3A2
:1051600040F2563234A11EA0FCF78AFE208929891C
:1051700008442081256070BD2E2E2F4D6964646C1B
:105180006577617265732F54686972645F506172EC
:1051900074792F4C7749502F7372632F636F726548
:1051A0002F706275662E6300286820213D204E55C1
:1051B0004C4C2920262620287420213D204E554C79
:1051C0004C29202870726F6772616D6D6572207650
:1051D000696F6C61746573204150492900000000BB
:1051E000417373657274696F6E2022257322206685
:1051F00061696C6564206174206C696E652025644A
:1052000020696E2025730A00702D3E746F745F6CE8
:10521000656E203D3D20702D3E6C656E20286F66CA
:10522000206C617374207062756620696E206368FB
:1052300061696E2900000000702D3E6E6578742053
:105240003D3D204E554C4C00002102E0491C0068B9
:1052500089B20028FAD10846704700002DE9F047CE
:105260004FF000070C4605003E466FF00F0904D0D2
:105270001CB128892189884204D235A34FF46F726A
:105280003FA14AE06FF0050A6889C11B6089801B55
:10529000814201DB80B200E088B28046606842460D
:1052A000811968683844FAF7BCFF07EB080087B239
:1052B00006EB080086B26889B84206D224A340F201
:1052C000CD323BA140A0FCF7DBFD6089B04206D2A5
:1052D0001FA340F2CE3246A13BA0FCF7D1FD60896E
:1052E000B04201D8246800266889B84202D12D68EE
:1052F000002765B1002C16D060892189884212D11F
:10530000206800280FD012A340F2DD3215E0002CF7
:105310001BD00FA34FF476723CA12BA0FCF7B0FD7D
:105320004846BDE8F08775B16889298988420AD165
:10533000286840B106A340F2E23238A122A0FCF76F
:105340009FFD5046EDE7002C9ED10020E9E70000CC
:105350002E2E2F4D6964646C6577617265732F54CE
:10536000686972645F50617274792F4C7749502F6D
:105370007372632F636F72652F706275662E6300A0
:10538000706275665F636F70793A207461726765E9
:1053900074206E6F742062696720656E6F75676830
:1053A00020746F20686F6C6420736F757263650082
:1053B0006F66667365745F746F203C3D20705F7428
:1053C0006F2D3E6C656E0000417373657274696F7A
:1053D0006E2022257322206661696C6564206174E9
:1053E000206C696E6520256420696E2025730A0093
:1053F0006F66667365745F66726F6D203C3D2070EA
:105400005F66726F6D2D3E6C656E0000705F746F2D
:1054100020213D204E554C4C000000007062756606
:105420005F636F7079282920646F6573206E6F74D5
:1054300020616C6C6F77207061636B65742071758F
:1054400065756573210000002DE9F0471646894611
:105450004FF0000828B1B9F1000F07D0002704462B
:105460002CE019A340F2FE3223A103E016A340F280
:10547000FF3229A131A0FCF703FD0020BDE8F08731
:105480002BB16089984202D8181A83B215E060895E
:10549000C01A85B2B54200D9354660682A46C1189F
:1054A00009EB0700FAF7BDFE08EB05001FFA80F8CC
:1054B000781987B2701B86B2002324680EB1002CC5
:1054C000DED14046DAE700002E2E2F4D6964646C71
:1054D0006577617265732F54686972645F50617299
:1054E00074792F4C7749502F7372632F636F7265F5
:1054F0002F706275662E6300706275665F636F70F1
:10550000795F7061727469616C3A20696E76616C62
:105510006964206275660000706275665F636F7013
:10552000795F7061727469616C3A20696E76616C42
:105530006964206461746170747200004173736502
:105540007274696F6E2022257322206661696C6512
:1055500064206174206C696E6520256420696E206A
:1055600025730A0070B5040013D0207B00280CD0EE
:1055700001280AD0022808D0032806D024A34FF41B
:1055800037722FA134A0FCF77BFC0025E08948B1DD
:105590000FE01FA340F2D22239A12FA0FCF770FC2C
:1055A000002070BD1AA340F2EB2238A12AA0FCF71C
:1055B00067FCE089401E0004000CE0811ED1617B85
:1055C000207B266889070CD5206930B910A340F2EA
:1055D000F92234A120A0FCF753FC2169204688471A
:1055E00008E003280CD001280DD002280BD020465B
:1055F000FEF736FF6D1CEDB23400C7D1284670BDF2
:105600002146072001E021460620FFF791F9F1E746
:105610002E2E2F4D6964646C6577617265732F540B
:10562000686972645F50617274792F4C7749502FAA
:105630007372632F636F72652F706275662E6300DD
:10564000706275665F667265653A2073616E65208B
:105650007479706500000000417373657274696F3E
:105660006E2022257322206661696C656420617456
:10567000206C696E6520256420696E2025730A0000
:105680007020213D204E554C4C0000007062756624
:105690005F667265653A20702D3E726566203E2019
:1056A0003000000070632D3E637573746F6D5F662C
:1056B0007265655F66756E6374696F6E20213D204B
:1056C0004E554C4C00000000002200F003B80122AF
:1056D000AFF3008070B516460D46040006D121A335
:1056E00040F23F222BA12EA0FCF7CAFB65B15CB1B2
:1056F000002D0BDA684282B26089904207D219A36A
:1057000040F2472230A10FE0002070BDAAB2217BF9
:10571000606869B103290BD0022911D001290FD08B
:1057200010A340F2772230A11DA0FCF7A9FB17E0DF
:10573000411B04F110026160914208D260600FE0E9
:10574000002D0BDA618991420AD3401B60606089A9
:1057500028446081208928442081D5E7002EF4D197
:10576000012070BD2E2E2F4D6964646C65776172C7
:1057700065732F54686972645F50617274792F4C3D
:105780007749502F7372632F636F72652F70627544
:10579000662E63007020213D204E554C4C000000C9
:1057A000417373657274696F6E20222573222066BF
:1057B00061696C6564206174206C696E6520256484
:1057C00020696E2025730A00696E6372656D656ECF
:1057D000745F6D61676E6974756465203C3D20700F
:1057E0002D3E6C656E00000062616420706275661B
:1057F00020747970650000002DE9F0470D46040023
:1058000006D12EA340F2F31238A13EA0FCF738FBDC
:10581000207B03280CD001280AD0002808D00228B9
:1058200006D026A34FF4FA7240A136A0FCF728FB5D
:105830002089A84240D92E1A4FF6FF7740F20B2854
:1058400040F20F2914E0281A85B2BE4205DB1BA3E3
:1058500042463DA12BA0FCF713FB20893044208158
:1058600024682CB915A34A463CA126A0FCF708FBE6
:105870006089A842E7D3207B002815D16089A8421F
:1058800012D0607B80070FD4A088001B284481B20F
:105890002046FEF78BFF040006D108A340F21D222C
:1058A00034A118A0FCF7ECFA65812581206808B1C5
:1058B000FFF758FE00202060BDE8F0872E2E2F4D08
:1058C0006964646C6577617265732F54686972648A
:1058D0005F50617274792F4C7749502F7372632F28
:1058E000636F72652F706275662E630070627566F5
:1058F0005F7265616C6C6F633A207020213D204EB1
:10590000554C4C00417373657274696F6E2022258B
:105910007322206661696C6564206174206C696E15
:105920006520256420696E2025730A007062756603
:105930005F7265616C6C6F633A2073616E65207095
:105940002D3E74797065000067726F77203C206D82
:1059500061785F7531365F740000000070627566B3
:105960005F7265616C6C6F633A207120213D204E3F
:10597000554C4C006D656D5F7472696D2072657475
:1059800075726E65642071203D3D204E554C4C0073
:1059900000280CD0C189491C0904090CC18106D119
:1059A00003A340F239320EA112A0FCF769BA704786
:1059B0002E2E2F4D6964646C6577617265732F5468
:1059C000686972645F50617274792F4C7749502F07
:1059D0007372632F636F72652F706275662E63003A
:1059E0007062756620726566206F766572666C6F90
:1059F00077000000417373657274696F6E20222511
:105A00007322206661696C6564206174206C696E24
:105A10006520256420696E2025730A0070B5284D25
:105A200004462868844206D226A340F25D1231A1C2
:105A300036A0FCF725FA6868844206D321A34FF408
:105A4000AF723CA131A0FCF71BFA207930B11DA345
:105A500040F25F123EA12DA0FCF712FA2088B0F5AB
:105A6000C86F06D917A34FF4B17240A127A0FCF765
:105A700007FA2188286801448C420ED00A7962B95D
:105A80006A68914209D0AA688A4200D1AC600A884B
:105A900022800B88221A811C5A5261880144A1423B
:105AA0000CD00A79002A09D1AA68A24200D1A960C3
:105AB00022880A802288091A801C115270BD0000B9
:105AC000280000202E2E2F4D6964646C657761726A
:105AD00065732F54686972645F50617274792F4CDA
